:0400000007EF00F016
:0A00080052820AED0FF076EF0DF0C2
:100800000061646D696E00001AC014F01BC015F021
:100810007EEC04F014C024F015C025F024502510FF
:10082000D8B415EF04F017EF04F01DEF04F024C066
:100830001AF025C01BF07DEF04F079EC0FF09EA6B6
:1008400024EF04F026EF04F01FEF04F09E96A10EB3
:10085000B6EC0EF00009D8B430EF04F032EF04F03B
:100860003EEF04F0FF0E136EFC0E126E39EC0FF02B
:1008700012C01AF013C01BF07DEF04F0000E266EBC
:100880004EEF04F026501C24D96E000E1D20DA6EA7
:10089000C7EC0EF0DF6E68EC0FF0262AFF0E1E2468
:1008A0001F6E206AFF0E20222650216E226A1F50E2
:1008B000215C2250800A236E2050800A2358D8A041
:1008C00064EF04F066EF04F042EF04F01E501C24C5
:1008D0001F6E000E1D20206EFF0E1F24D96EFF0E0E
:1008E0002020DA6EC7EC0EF0DF6E63EC0FF071ECD7
:1008F0000FF0000E1B6E000E1A6E12007FEC0EF051
:1009000075EC0FF07FEC0EF09EA689EF04F08BEFF4
:1009100004F084EF04F09E96030E196EE80E186E34
:1009200094EF04F079EC0FF0A00EB6EC0EF0000995
:10093000D8B49DEF04F09FEF04F0ACEF04F018067C
:10094000D8A01906182806E11928D8A4AAEF04F09F
:10095000ACEF04F092EF04F018501910D8A4B3EFE4
:1009600004F0B5EF04F0C0EF04F0FF0E136E126850
:1009700039EC0FF012C014F013C015F0F6EF04F0CC
:100980001550166E14C017F01650B6EC0EF0000994
:10099000D8B4CDEF04F0CFEF04F0DBEF04F0FF0E9E
:1009A000136EFE0E126E39EC0FF012C014F013C06D
:1009B00015F0F6EF04F01750B6EC0EF00009D8B4BD
:1009C000E4EF04F0E6EF04F0F2EF04F0FF0E136E34
:1009D000FD0E126E39EC0FF012C014F013C015F0BA
:1009E000F6EF04F0000E156E000E146E1200326E5B
:1009F00032502CEC0DF014C030F015C031F03050F6
:100A00003110D8B406EF05F008EF05F00EEF05F051
:100A100030C02CF031C02DF06BEF05F0000E346EBD
:100A2000000E336E33C00EF034C00FF0000E116EA6
:100A30000C0E106E92EC0EF00B0E0E24D96E010E01
:100A40000F20DA6E3250DE18D8A429EF05F02BEF14
:100A500005F031EF05F033C02CF034C02DF06BEF12
:100A600005F0334A342A34BE3FEF05F0345009E133
:100A70000A0E335CD8A03FEF05F041EF05F012EF0E
:100A800005F032C00EF00F6A000E116E0B0E106EE4
:100A900092EC0EF00EC027F00FC028F04F500C0D56
:100AA000000EF324296E010EF4202A6E0B0E2B6E1D
:100AB000F0EC0EF04F500C0D0B0EF324D96E010E1E
:100AC000F420DA6E32C0DFFF4FC02FF0FDEC0EF0E5
:100AD0002FC02CF02D6A12000EC016F00FC017F0B8
:100AE00010C018F011C019F01206D8A01306122871
:100AF00006E11328D8A47FEF05F081EF05F08EEF13
:100B000005F0000E0F6E000E0E6ED2EF05F0164AC5
:100B1000172A184A192A1206D8A0130616C0D9FF98
:100B200017C0DAFFDF50D8B498EF05F09AEF05F060
:100B3000C0EF05F018C0D9FF19C0DAFFDF50D8B4F4
:100B4000A4EF05F0A6EF05F0C0EF05F0125013106A
:100B5000D8B4ADEF05F0AFEF05F0C0EF05F018C069
:100B6000D9FF19C0DAFF16C0E1FF17C0E2FFDE505F
:100B7000E618D8B4BEEF05F0C0EF05F087EF05F03A
:100B800016C0D9FF17C0DAFFDF50146E18C0D9FFA6
:100B900019C0DAFFDF50156E1550145C0E6E0F6A27
:100BA000D8A00F0612000001B451B511D8B4DBEF84
:100BB00005F0DDEF05F02BEF06F020EE0AF0B45162
:100BC000D926B551DA22DF50BA6FB6C0BBF0010E9C
:100BD000BC6FBB2BEEEF05F0D890BC37BB2FECEF12
:100BE00005F00001BC51BA150009D8B4FAEF05F0C0
:100BF000FCEF05F02BEF06F0B8C0A4F0B9C0A5F0EB
:100C0000B751020DF3CFBAF0F4CFBBF0B651030DDC
:100C1000610EF324D96E000EF420DA6EDECFBCF044
:100C2000DDCFBDF0BA51BC25D96EBB51BD21DA6E06
:100C300002D825EF06F00500FA6EDE50FD6EDE509C
:100C4000FE6EF850FF6EFA501200A4C0B4F0A5C0BA
:100C5000B5F034EF06F0000E136E126839EC0FF0A9
:100C600012C0B4F013C0B5F01200166E000E186E6C
:100C7000000E176E17C00EF018C00FF0000E116EA8
:100C80000C0E106E92EC0EF00B0E0E24D96E010EAF
:100C90000F20DA6E1650DE18D8A451EF06F053EF8D
:100CA00006F082EF06F0000E1A6E000E196E165056
:100CB0000C0D050EF324146E010EF420156E195060
:100CC0001424D96E1A501520DA6EDF6A194A1A2ACE
:100CD0001ABE74EF06F01A5009E1050E195CD8A08F
:100CE00074EF06F076EF06F057EF06F016500C0D95
:100CF0000B0EF324D96E010EF420DA6EFF0EDF6EB8
:100D000092EF06F0174A182A18BE90EF06F0185016
:100D100009E10A0E175CD8A090EF06F092EF06F0FA
:100D20003AEF06F01200000E2D6E060E1EEC0BF0D0
:100D300014C02EF015C02FF02EC0D9FF2FC0DAFF3F
:100D4000C00EDE6E190EDD6E20EE02F02E50D9269A
:100D50002F50DA225C0EDE6E1E0EDD6E20EE04F0E9
:100D60002E50D9262F50DA22E00EDE6E1B0EDD6EDD
:100D700020EE06F02E50D9262F50DA22AC0EDE6E71
:100D80001B0EDD6E20EE08F02E50D9262F50DA22F1
:100D9000720EDE6E1B0EDD6E20EE0AF02E50D9268E
:100DA0002F50DA22460EDE6E1E0EDD6E2D0E0E6EFA
:100DB000000E0F6E23EC0EF0000E286E000E276E54
:100DC0002C0E296E000E2A6E010E2B6EF0EC0EF02A
:100DD0002C506DEC0FF01200000E166E000E176E08
:100DE000000E186E000E196E12501310141015100C
:100DF000D8B4FDEF06F0FFEF06F035EF07F0010E77
:100E00001A6E09EF07F0D8901236133614361536DD
:100E10001A2A15AE0EEF07F010EF07F003EF07F0F8
:100E2000D890163617361836193612500E5C1350F5
:100E30000F581450105815501158D8A022EF07F031
:100E400024EF07F02DEF07F012500E5E13500F5AEB
:100E50001450105A1550115A1680D8901532143269
:100E6000133212321A2E10EF07F016C00EF017C010
:100E70000FF018C010F019C011F012000EC016F0DB
:100E80000FC017F06EEF07F01206D8A0130610502F
:100E9000146E1150156E104A112A14C0F6FF15C0B9
:100EA000F7FFF86A16C0D9FF17C0DAFF164A172AEB
:100EB000070EF76403D00800F55005D0F6CFE1FF28
:100EC000F7CFE2FFE750DF6EDF50D8A46AEF07F0FC
:100ED0006CEF07F06EEF07F080EF07F01250131081
:100EE000D8A475EF07F077EF07F044EF07F080EF35
:100EF00007F016C0D9FF17C0DAFFDF6A164A172AB3
:100F00001206D8A01306122806E11328D8A48BEFE6
:100F100007F08DEF07F079EF07F012001AC014F018
:100F20001BC015F07EEC04F014C01FF015C020F0BB
:100F30001F502010D8B49FEF07F0A1EF07F0A7EFE4
:100F400007F01FC01AF020C01BF0DCEF07F0000E06
:100F5000216ECDEF07F021501C24D96E000E1D200C
:100F6000DA6EDF50B6EC0EF00009D8B4BAEF07F035
:100F7000BCEF07F0CCEF07F02150F508126E000E21
:100F8000D8A0E82AFF08136E39EC0FF012C01AF04F
:100F900013C01BF0DCEF07F0212A1E50215CD8A003
:100FA000D4EF07F0D6EF07F0ABEF07F071EC0FF0DE
:100FB000000E1B6E000E1A6E1200406E40502CEC9C
:100FC0000DF014C03CF015C03DF03C503D10D8B4BD
:100FD000ECEF07F0EEEF07F0F4EF07F03CC03AF06B
:100FE0003DC03BF028EF08F0405006EC0DF035C056
:100FF0003EF036C03FF0050E3E240E6E000E3F2040
:101000000F6E3AC010F03BC011F0000E136E050ECB
:10101000126E3EEC07F040C00EF00F6A000E116E2B
:101020000B0E106E92EC0EF0050E0E24226E000ECA
:101030000F20236E050E3E24246E000E3F20256EE9
:10104000050E266EA5EC0EF0000E3B6E000E3A6EFD
:101050001200A4C03DF0A5C03EF04BEC09F03D509D
:101060003E10D8B436EF08F038EF08F056EF08F02D
:101070008980330E0001A76FBB0EA66FDF0EE82E2E
:10108000FED7A62FFCD7A72FFAD700D08990330E12
:101090000001A76FBB0EA66FDF0EE82EFED7A62FAE
:1010A000FCD7A72FFAD700D072EF08F08982330E51
:1010B0000001A76FBB0EA66FDF0EE82EFED7A62F8E
:1010C000FCD7A72FFAD700D08992330E0001A76F63
:1010D000BB0EA66FDF0EE82EFED7A62FFCD7A72FDC
:1010E000FAD700D01200406E40502CEC0DF014C026
:1010F0003CF015C03DF03C503D10D8B482EF08F0F4
:1011000084EF08F08AEF08F03CC03AF03DC03BF0B5
:10111000BAEF08F0405006EC0DF035C03EF036C096
:101120003FF03EC00EF03FC00FF03AC010F03BC0A1
:1011300011F0000E136E050E126E3EEC07F040C06B
:101140000EF00F6A000E116E0B0E106E92EC0EF088
:10115000000E0E24226E000E0F20236E3EC024F0DF
:101160003FC025F0050E266EA5EC0EF0000E3B6E7E
:10117000000E3A6E12007DEC0FF03F6E3F50406E55
:10118000416A000E456E010E446EEFEF08F04450C8
:101190004FEC0FF03AC042F03BC043F0050E422442
:1011A0000E6E000E43200F6E3DC010F03EC011F0D9
:1011B000000E136E050E126E6CEC05F00E500F1043
:1011C000D8A4E5EF08F0E7EF08F0EDEF08F042C033
:1011D0003DF043C03EF002EF09F0444A452A445036
:1011E000405C4150800A3F6E4550800A3F58D8B05D
:1011F000FCEF08F0FEEF08F0C7EF08F0000E3D6EC0
:10120000000E3E6E12000B0E076E000E086E0FEC05
:101210000CF007C009F008C00AF009500A10D8B451
:1012200014EF09F016EF09F018EF09F04AEF09F092
:101230005E0E0B18D8A41FEF09F021EF09F027EF7D
:1012400009F0000E4D6E000E4C6E4AEF09F04DBED7
:1012500032EF09F04C04010E4D58D8A032EF09F0DE
:1012600034EF09F040EF09F0000E4D6E000E4C6EA9
:10127000FF0E066EFB0E056E44EC0FF04AEF09F010
:10128000000E4C24D96E020E4D20DA6E0BC0DFFF2B
:101290004C4A4D2A12007DEC0FF03F6E3F50406EDD
:1012A000416A000E456E010E446E7DEF09F0445018
:1012B0004FEC0FF03AC042F03BC043F042C00EF09A
:1012C00043C00FF03DC010F03EC011F0000E136E91
:1012D000050E126E6CEC05F00E500F10D8A473EFD3
:1012E00009F075EF09F07BEF09F042C03DF043C013
:1012F0003EF090EF09F0444A452A4450405C41508A
:10130000800A3F6E4550800A3F58D8B08AEF09F0F6
:101310008CEF09F057EF09F0000E3D6E000E3E6EA7
:101320001200466E46502CEC0DF014C043F015C070
:1013300044F043504410D8B4A0EF09F0A2EF09F0F4
:10134000A8EF09F043C03DF044C03EF0D4EF09F0EF
:101350007DEC0FF0456E45504FEC0FF03AC041F078
:101360003BC042F046C00EF00F6A000E116E0B0E2D
:10137000106E92EC0EF00EC022F00FC023F0415020
:101380003F6E406A3FC024F040C025F00B0E266E31
:10139000A5EC0EF0465035EC06F04504D6EC0EF008
:1013A000000E3E6E000E3D6E1200406E40502CEC62
:1013B0000DF014C03EF015C03FF03E503F10D8B4C1
:1013C000E4EF09F0E6EF09F0ECEF09F03EC03AF087
:1013D0003FC03BF016EF0AF0405006EC0DF035C070
:1013E0003CF036C03DF020EE0AF03C50D9263D508E
:1013F000DA223AC0DFFF40C00EF00F6A000E116E15
:101400000B0E106E92EC0EF00A0E0E24226E000EE1
:101410000F20236E3A0E246E000E256E010E266EEE
:10142000A5EC0EF0000E3B6E000E3A6E1200000EA0
:101430004D6E000E4C6E060E0001BE6F020EBF6FA9
:10144000BEC03DF0BFC03EF0BBEC08F03DC0C0F0F8
:101450003EC0C1F0000E0E6E020E0F6E52EC0AF08E
:101460000EC0C2F00FC0C3F0030E0E6E020E0F6E60
:1014700052EC0AF00EC0C4F00FC0C5F00B0E000114
:10148000C66F020EC76FC0C0B4F0C1C0B5F0C2C015
:10149000B6F0C4C0B7F0C6C0B8F0C7C0B9F0D3EC5E
:1014A00005F0120020EE01F00E50D9260F50DA227E
:1014B000DF50106E10500A0DF3CF11F0F4CF12F080
:1014C0000EC0D9FF0FC0DAFFDF50136E1350640D4A
:1014D000F3CF14F0F4CF15F011501424166E1250FF
:1014E0001520176E20EE02F00E50D9260F50DA228A
:1014F000DF50186E18501626000E1722300E1624D4
:101500000E6EEB0E17200F6E120029C00EF00F6A40
:10151000000E116E0B0E106E92EC0EF00EC022F04B
:101520000FC023F027C024F028C025F00B0E266E34
:10153000A5EC0EF027C0D9FF28C0DAFF4F500C0DE4
:10154000000EF324E16E010EF420E26E0B0EDBCFF1
:10155000E3FFE806FCE24F500C0D0B0EF324D96EAE
:10156000010EF420DA6E29C0DFFFFDEC0EF0120050
:10157000DFEF0AF08992030E116E8A0E106E560E7E
:10158000E82EFED7102EFCD7112EFAD789820EB086
:10159000CCEF0AF0CFEF0AF08980D0EF0AF0899003
:1015A000D8900F320E321A0E116E5E0E106E6E0E45
:1015B000E82EFED7102EFCD7112EFAD700D00E50F1
:1015C0000F10D8A4E6EF0AF0E8EF0AF0BAEF0AF03D
:1015D00089908992120012EF0BF08992030E046E2B
:1015E0008A0E036E560EE82EFED7032EFCD7042E6D
:1015F000FAD7898201B0FFEF0AF002EF0BF0898081
:1016000003EF0BF08990D890023201321A0E046E6B
:101610005E0E036E6E0EE82EFED7032EFCD7042E50
:10162000FAD700D001500210D8A419EF0BF01BEF2D
:101630000BF0EDEF0AF08990899212001A6E1A50A1
:1016400050C016F0176A1626000E172217BE32EF8A
:101650000BF0175009E1140E165CD8A032EF0BF016
:1016600034EF0BF040EF0BF0FF0E136EF80E126E1E
:1016700039EC0FF0000E146E000E156E4EEF0BF0ED
:101680005050020D780EF324186E000EF420196EDF
:101690001A50502618C014F019C015F01200A0C03E
:1016A0003DF0A1C03EF04BEC09F03DC046F03EC01D
:1016B00047F046504710D8A460EF0BF062EF0BF0F4
:1016C0006EEF0BF0FF0E136EF50E126E39EC0FF08D
:1016D00012C0A0F013C0A1F07FEF0BF0A2C03AF04F
:1016E000A3C03BF020EE0BF04650D9264750DA223B
:1016F000DF50DDEC07F03AC0A0F03BC0A1F01200D3
:10170000A0C03DF0A1C03EF04BEC09F03DC046F05A
:101710003EC047F046504710D8A491EF0BF093EF2E
:101720000BF09FEF0BF0FF0E136EF50E126E39ECFF
:101730000FF012C0A0F013C0A1F0B0EF0BF0A2C0E8
:101740003AF0A3C03BF020EE0BF04650D9264750AC
:10175000DA22DF5073EC08F03AC0A0F03BC0A1F0F1
:10176000120046C03DF047C03EF04BEC09F03DC0D2
:10177000A0F03EC0A1F00001A051A111D8A4C3EF78
:101780000BF0C5EF0BF0D1EF0BF0FF0E136EF50E63
:10179000126E39EC0FF012C046F013C047F0E0EFC4
:1017A0000BF048C03AF020EE0BF0A051D926A15121
:1017B000DA22DF50D5EC09F03AC046F03BC047F0E2
:1017C000120047C03DF048C03EF04BEC09F03DC070
:1017D000A0F03EC0A1F00001A051A111D8A4F3EFE8
:1017E0000BF0F5EF0BF001EF0CF0FF0E136EF50EA2
:1017F000126E39EC0FF012C047F013C048F00EEF34
:101800000CF020EE0BF0A051D926A151DA22DF50C6
:1018100091EC09F03DC047F03EC048F012009EAA8E
:1018200014EF0CF016EF0CF037EF0CF0ABA21BEF3F
:101830000CF01DEF0CF02BEF0CF0AB98AB88FF0E0B
:10184000066EFA0E056E44EC0FF005C007F006C0F8
:1018500008F03BEF0CF007C0D9FF08C0DAFFAECFAD
:10186000DFFF000E086E000E076E3BEF0CF0FF0E60
:10187000086EF90E076E120093809382280EC66ED2
:10188000000E0E6E5A0E0F6E620E106E020E116E6C
:101890001BC01FF01CC020F01DC021F01EC022F094
:1018A000020ED8901F36203621362236E82E51EF10
:1018B0000CF01FC012F020C013F021C014F022C0A1
:1018C00015F0ECEC06F00E04C86E12002B502C1034
:1018D000D8A46DEF0CF06FEF0CF07BEF0CF0FF0E67
:1018E000136EF60E126E39EC0FF012C02BF013C00F
:1018F0002CF08FEF0CF07DEC0FF02D6E2D282E6E5E
:101900002BC027F02CC028F02EC029F085EC0AF05F
:101910002E50D6EC0EF0000E2C6E000E2B6E120028
:101920002A0E0E6E000E0F6E010E106E080E116E56
:10193000000E136E050E126E3EEC07F02F0E0E6EAB
:10194000000E0F6E010E106E080E116E000E136E5B
:10195000050E126E3EEC07F03468010E356E2A0E4D
:10196000276E000E286E010E296E85EC0AF012001B
:1019700046C03DF047C03EF04BEC09F03DC0A0F042
:101980003EC0A1F00001A051A111D8A4CAEF0CF0F3
:10199000CCEF0CF0D8EF0CF0FF0E136EF50E126EBC
:1019A00039EC0FF012C046F013C047F0DFEF0CF037
:1019B000A0515EEC0FF00EC046F00FC047F01200D1
:1019C000A4C0D9FFA5C0DAFF10EEA8F00B0EDBCF44
:1019D000E3FFE806FCE20A0E0001A425A66F000E54
:1019E000A521A76FA6C00EF0A7C00FF052EC0AF019
:1019F0000E500001B26FA80E2B6E000E2C6E66EC1E
:101A00000CF02BC0A4F02CC0A5F01200376E37509C
:101A1000F7EC04F02CC038F02DC039F039BE15EFCA
:101A20000DF013EF0DF01BEF0DF0000E356E000EF4
:101A3000366E2BEF0DF038C00EF039C00FF0000EEF
:101A4000116E0C0E106E92EC0EF0000E0E24356E20
:101A5000010E0F20366E1200176E1750D8B433EFF8
:101A60000DF035EF0DF041EF0DF07DEC0FF0166E3F
:101A70001750165CD8B03FEF0DF041EF0DF04DEF71
:101A80000DF0FF0E136EF70E126E39EC0FF012C050
:101A900014F013C015F051EF0DF0000E156E000E8E
:101AA000146E120058EC0FF0010E1EEC0BF014C077
:101AB00036F015C037F036C0D9FF37C0DAFF520E06
:101AC000DE6E100EDD6E49C038F04AC039F04BC0F2
:101AD0003AF0050E386E36C039F037C03AF0380E9D
:101AE0000E6E000E0F6E23EC0EF0120002EE00F0F0
:101AF00011EE00F0EE6AE550E150FCE1E250FAE14F
:101B000001EE00F0780EEE6AE806FDE100EE60F00E
:101B1000400EEE6AE806FDE100EE49F0080EEE6ABE
:101B2000E806FDE152905292000EF86E00010AEFB5
:101B30000EF0000E116E4C504D10D8B4A2EF0DF007
:101B4000A4EF0DF0B5EF0DF0FF0E4C24D96E010E91
:101B50004D20DA6E210EDE18D8A4B1EF0DF0B3EFF0
:101B60000DF0B5EF0DF0010E116E11C00EF00F6A01
:101B70001200A4C0A7F0A5C0A8F0050E0001A7257B
:101B80000E6E000EA8210F6E52EC0AF00E500001EE
:101B9000A66FA7C046F0A8C047F0A6C048F0B1ECB9
:101BA0000BF046C0A4F047C0A5F01200A4C0A8F0F6
:101BB000A5C0A9F0050E0001A825A66F000EA92159
:101BC000A76FA8C0A0F0A9C0A1F0A6C0A2F0A7C0AE
:101BD000A3F04FEC0BF0A0C0A4F0A1C0A5F0120040
:101BE000A4C0A8F0A5C0A9F0050E0001A825A66F05
:101BF000000EA921A76FA8C0A0F0A9C0A1F0A6C09F
:101C0000A2F0A7C0A3F080EC0BF0A0C0A4F0A1C08C
:101C1000A5F0120054EC0EF0000E926E000E896ECC
:101C200052EC0DF099EC0DF00E500F10D8B41BEFE4
:101C30000EF01DEF0EF012EF0EF017EC0AF012EF9F
:101C40000EF007EF00F00EC0D9FF0FC0DAFF0EC094
:101C5000E1FF0FC0E2FFE750106E1050030D600E61
:101C6000F324E16E000EF420E26EDECFE6FFDECF5D
:101C7000E6FFDECFE6FF1200010E1B6E010E1EEC2A
:101C80000BF014C01CF015C01DF01CC0D9FF1DC006
:101C9000DAFFD40EDE6E1C0EDD6E1B0E0E6E000E15
:101CA0000F6E23EC0EF01200A00E1B6E860E1C6E43
:101CB000010E1D6E000E1E6E3CEC0CF017EC0FF0CA
:101CC00093EC06F03CEC0EF0F28EF28C9D8A0F0E37
:101CD000C112120089840B0E0001A76F260EA66F99
:101CE0005D0EE82EFED7A62FFCD7A72FFAD700D07F
:101CF0008994000E0001A56F000EA46F1200C7B4F6
:101D000084EF0EF086EF0EF07FEF0EF0C5CF0EF0F1
:101D10001F0E0E16D8A48FEF0EF091EF0EF07FEF8E
:101D20000EF012000E501002F3CF12F0F4CF13F0A9
:101D30000E501102F35013260F501002F3501326C9
:101D400012C00EF013C00FF0120022C01AF023C010
:101D50001BF024C01CF025C01DF026C01EF08EEC28
:101D600007F01AC022F01BC023F012000F6E7FECA8
:101D70000EF00FC0C9FF9EA6C0EF0EF0C2EF0EF02E
:101D8000BBEF0EF09E96000EC5BC010E12007FEC5C
:101D90000EF0C5869EA6CFEF0EF0D1EF0EF0CAEF83
:101DA0000EF09E967FEC0EF0C95012002A6E2AC0EB
:101DB00029F0290E276E000E286EE3EC0EF02A5053
:101DC0006DEC0FF01200000E236E000E226E27C085
:101DD00024F028C025F0010E266EA5EC0EF01200AE
:101DE00027C01AF028C01BF029C01CF02AC01DF023
:101DF0002BC01EF004EC04F012004F2A0A0E4F18FC
:101E0000D8A405EF0FF007EF0FF009EF0FF0000E69
:101E10004F6E12000600D9CF0CF0DACF0DF003ECB4
:101E200009F00DC0DAFF0CC0D9FF52921100AB8E41
:101E3000AC98AC84B886040EB06EE10EAF6EAB8881
:101E4000C00E94121200A4C046F0A5C047F0B8EC32
:101E50000CF046C0A4F047C0A5F01200A4C047F0A3
:101E6000A5C048F0E1EC0BF047C0A4F048C0A5F0D5
:101E70001200000E0F6E010E0E6EB8EC0AF012C0CA
:101E800012F013C013F01200000E026E010E016E6C
:101E9000EBEC0AF005C005F006C006F012003C6E3F
:101EA0003C5006EC0DF035C03AF036C03BF0120065
:101EB00090EC0CF0010ED6EC0EF01200000E0F6E3E
:101EC000000E0E6E1200C58A7FEC0EF0C58812005F
:101ED000C59A7FEC0EF0C58812000E6E0EC051F050
:101EE00012007FEC0EF0C58412007FEC0EF0C5806E
:0E1EF00012007FEC0EF0C5821200515012005D
:020000040020DA
:08000000FFFFFFFFFFFFFFFF00
:020000040030CA
:0E000000048E191EFF8181FF0FC00FE00F401C
:00000001FF
